:100000000C9408010C9430010C9430010C94160DE2
:100010000C94F20C0C94CE0C0C9430010C94300126
:100020000C9430010C9430010C9430010C9430018C
:100030000C9430010C9430010C9430010C9430017C
:100040000C9490170C9430010C94D4180C949918BB
:100050000C9430010C9430010C9430010C9430015C
:100060000C9430010C943001E41FFE1F13202E204D
:10007000392077207E2088209320A220A220A22051
:10008000A220A220A220A220A220A220A220A22060
:10009000A220A220A220A220A220A220A220A22050
:1000A000A220A220A220A220E41FF91FFE1F1320DD
:1000B0002E20392054205F206A20084AD73B3BCEAF
:1000C000016E84BCBFFDC12F3D6C74319ABD568357
:1000D0003DDA3D00C77F11BED9E4BB4C3E916BAA0F
:1000E000AABE000000803F05A84CCDB2D44EB9385E
:1000F00036A9020C50B9918688083CA6AAAA2ABE45
:10010000000000803F0000C2010001000500050062
:10011000030000E1000001000F000F000D00009639
:100120000000020019001A001700127A00000700F0
:10013000200021001D00807000000B002300230020
:100140002000004B00001400370037003400403816
:1001500000001E004B004B004800802500003200CC
:10016000720072007000C01200006E00E900E90029
:10017000E60060090000E500D801D801D501B0040F
:100180000000D301B403B403B10358020000B40368
:100190006707670762072C0100006707DD0EDD0EA9
:1001A000DA0E7C3C3E5E2B3D3F2F5B5D3B2C2A22D2
:1001B0005C0000000000250028002B00000000006B
:1001C0002300260029000404040404040404020299
:1001D00002020202030303030303010204081020C6
:1001E00040800102040810200102040810200000D1
:1001F0000000240027002A00000000070002010080
:10020000000304060000000000000000E725972717
:1002100011241FBECFEFD8E0DEBFCDBF12E0A0E0BB
:10022000B1E0E2ECFDE502C005900D92AA34B10701
:10023000D9F726E0AAE4B2E001C01D92A736B207C2
:10024000E1F711E0C7E0D1E004C02197FE010E9470
:10025000612EC630D107C9F70E940E190C94E82709
:100260000C940000DC015996ED91FC915A9730975F
:10027000B9F083899489A589B689428553856485B7
:100280007585841B950BA60BB70B811520E892078B
:10029000A105B10538F08FEF9FE7A0E0B0E0089529
:1002A00080E090E00895CF93DF931F92CDB7DEB743
:1002B0006983DC01ED91FC910280F381E02D41E046
:1002C00050E0BE016F5F7F4F09950F90DF91CF9196
:1002D0000895CF93DF93EC018D818823A1F18C8168
:1002E00087FF2DC06E857F858889998941E00E94AE
:1002F000270F882341F1EA8980E2E89FF001112469
:10030000DF01AD58BD4F1097F1F08D81823050F470
:100310004B895C896D897E895C964D935D936D9365
:100320007C935F978F89988DA98DBA8DED58FD4F7D
:10033000938F828FB58BA48B8C818F778C83DF9189
:10034000CF910C94EA0E80E0DF91CF910895FC01EB
:10035000818D928D009711F00C94690108953F9260
:100360004F925F926F927F928F929F92AF92BF92C5
:10037000CF92DF92EF92FF920F931F93CF93DF9371
:10038000CDB7DEB72C970FB6F894DEBF0FBECDBF4A
:100390005C01DC015B968D909C905C971696CD90ED
:1003A000DD90ED90FC901997C114D104E104F104A3
:1003B00039F0BFEFCB1ADB0AEB0AFB0A312C07C07E
:1003C000F401C080D180E280F38033243394F401BF
:1003D00081859285A385B4859C01AD012F5F3F4F38
:1003E0004F4F5F4F29873A874B875C87260137013C
:1003F0001D821E821F821886F40181859285A38545
:10040000B4852D813E814F815885281739074A07C9
:100410005B0708F063C089859A85AB85BC858C1520
:100420009D05AE05BF0550F482E0C82ED12CE12C0D
:10043000F12C92E0492E512C612C712C9E012F5FE2
:100440003F4FB701A601C4010E943F11882309F460
:1004500045C089819A81AB81BC81892B8A2B8B2BEA
:1004600041F0260137019FEF491A590A690A790AB2
:1004700005C0C414D504E604F70491F02D813E8133
:100480004F8158852F5F3F4F4F4F5F4F2D833E83E6
:100490004F8358873FEFC31AD30AE30AF30AACCF5E
:1004A0000FEF1FEF2FEF3FE0B301A201C4010E9445
:1004B0009F10882399F0D50116964D915D916D910D
:1004C0007C911997411551056105710549F093011A
:1004D0008201C4010E949F10811102C080E02AC0E5
:1004E000D50116964D925D926D927C9219973320AC
:1004F00051F0D301C2010196A11DB11DF401808309
:100500009183A283B383F5018789908DA18DB28DEC
:10051000892B8A2B8B2B69F4D50157964D925D92CE
:100520006D927C925A9714968C91149780681496C9
:100530008C9381E02C960FB6F894DEBF0FBECDBF32
:10054000DF91CF911F910F91FF90EF90DF90CF90AF
:10055000BF90AF909F908F907F906F905F904F90E3
:100560003F9008952F923F924F925F926F927F92A9
:100570008F929F92AF92BF92CF92DF92EF92FF92B3
:100580000F931F93CF93DF9300D0CDB7DEB7FC015D
:100590008581882309F4D9C0848180FFD6C021E0F9
:1005A0002A83438954896589768982859385A485C0
:1005B000B585481759076A077B0709F41A826F0146
:1005C0003A81832F90E0DE0111964D013F01B6E0A4
:1005D0006B0E711C892B09F47DC0D6011A964D91C2
:1005E0005D916D917C911D975A01B1E0BB22F6019E
:1005F00025811A012B0189E056944794379427945A
:100600008A95D1F7838D948D223061F4FC01828D1F
:10061000938DA48DB58DBC01CD01620D731D841D1C
:10062000951D45C0DC0114961C9111501221A11496
:10063000B104D1F4111118C0452B462B472B51F4AE
:10064000F6018789908DA18DB28D86839783A087CF
:10065000B1870AC0468157816085718593010E94E8
:100660003F11882309F471C0F601238D348D8681F2
:100670009781A085B1850297A109B109AC01BD019F
:10068000F901058404C0440F551F661F771F0A94A3
:10069000D2F786859785A089B189840F951FA61FFB
:1006A000B71FBC01CD01610F711D811D911DD601C8
:1006B00014962C9126FF14C00091010110910201A3
:1006C000209103013091040160177107820793079D
:1006D00051F506C0FA81FF23C1F1898190E037C04E
:1006E00040E00E94270F882381F1F501ED58FD4F6E
:1006F000D401CF010196E817F90719F021912D9344
:10070000FACFEFEF8E1A9E0AF60182859385A485B3
:10071000B5850196A11DB11D82879387A487B587F2
:1007200080E090E057CF740101E010E09501AB014B
:10073000BC0180917304909174040E94CF0D8823B2
:1007400021F0BFEF8B1A9B0ADFCF8FEF9FEF0F9047
:100750000F90DF91CF911F910F91FF90EF90DF905D
:10076000CF90BF90AF909F908F907F906F905F9051
:100770004F903F902F900895FC01818D928D0097AE
:1007800011F00C94B2028FEF9FEF0895CF93DF9397
:10079000EC0160E08E810E94F21661E08E810E9481
:1007A000F21660E08E810E94F21683EC90E00197D1
:1007B000F1F7DF91CF9108958EBD0DB407FEFDCF07
:1007C00008958FEF0E94DC038EB508958F929F925B
:1007D000AF92BF92CF92DF92EF92FF920F931F934F
:1007E000CF93DF93EC018D81811102C080E077C04F
:1007F0000B891C892D893E890417150726073707A1
:10080000A8F36A017B01823029F4CA86DB86EC8674
:10081000FD860DC0C114D104E104F10451F41E821F
:100820001F82188619861A861B861C861D8681E003
:1008300056C08A849B84AC84BD84EB8DFC8D258559
:1008400030E0275F3F4FB501A401415051096109D4
:100850007109022E04C076956795579547950A94BD
:10086000D2F7D701C6010197A109B10904C0B69515
:10087000A795979587952A95D2F784179507A60788
:10088000B70720F089288A288B2849F44F89588D8A
:10089000698D7A8D4E835F836887798704C0841B56
:1008A000950BA60BB70B4C015D018E010A5F1F4F24
:1008B00081149104A104B10409F4A7CF4E815F8192
:1008C0006885798598018B8D9C8D0E943F1191E000
:1008D000891A9108A108B1088111EACF87CFDF9169
:1008E000CF911F910F91FF90EF90DF90CF90BF902D
:1008F000AF909F908F9008952F923F924F925F926A
:100900006F927F928F929F92AF92BF92CF92DF921F
:10091000EF92FF920F931F93CF93DF9300D000D0FD
:10092000CDB7DEB78C015B011A01DC0115968C9105
:1009300015978130C9F414968C9181FF15C082FF00
:100940001BC0F8014389548965897689828593851E
:10095000A485B58584179507A607B70769F0C80170
:100960000E94E603811108C081E090E0F8019383C2
:10097000828380E090E039C1610183C0D8015B9639
:100980008D919C915C97FC01248121502A013B01AF
:1009900039E076946794579447943A95D1F7722E3C
:1009A00074207A01F1E0FF22772009F476C080E01C
:1009B00092E08E199F0946018C159D0508F44C01A3
:1009C000D8015B962D913C915C9716968D919D91E7
:1009D0000D90BC91A02D0297A109B109F9010584E0
:1009E00004C0880F991FAA1FBB1F0A94D2F746851F
:1009F000578560897189840F951FA61FB71F9C01B9
:100A0000AD01270D311D411D511D29013A018114F0
:100A100032E0930609F088C08091010190910201B3
:100A2000A0910301B091040184159505A605B705B1
:100A300059F48FEF9FEFDC01809301019093020145
:100A4000A0930301B09304019501B301A201809129
:100A50007304909174040E94780E882309F484CF63
:100A60009EEFB91AC818D908F80182859385A48524
:100A7000B585880D991DA11DB11D82879387A48717
:100A8000B587D8011A964D915D916D917C911D9716
:100A9000C114D10409F072CF87C0E114F10409F048
:100AA00086CF16964D915D916D917C911997411568
:100AB00051056105710559F457968D919D910D90E1
:100AC000BC91A02D0097A105B10541F521C09E0163
:100AD0002F5F3F4F0E943F11882309F44BCF89813C
:100AE0009A81AB81BC81F801238D348DF90127896E
:100AF000203129F048EF5FEF6FEF7FE004C048EF4F
:100B00005FEF60E070E084179507A607B70730F045
:100B1000C8010E94AF0181114ACF26CFF801868318
:100B20009783A087B18743CFE114F10429F5D80159
:100B30001A964D915D916D917C911D9753968D9173
:100B40009D910D90BC91A02D481759076A077B070E
:100B500098F00E94EA0E882309F406CF4092010122
:100B600050920201609203017092040180916E0222
:100B7000816080936E0208C041E0C301B2010E940F
:100B8000270F882309F4F0CED501F701ED58FD4F6A
:100B9000CF01880D991DE817F90719F02D912193C0
:100BA000FACFA80CB91C5ECF53968D919D910D90F4
:100BB000BC91A02D84179507A607B70740F4F8014C
:100BC000438B548B658B768B848180688483D801BA
:100BD00014968C9183FD02C0C10107C0C8010E9418
:100BE0006901882309F4C0CEF7CF0F900F900F90C2
:100BF0000F90DF91CF911F910F91FF90EF90DF90B9
:100C0000CF90BF90AF909F908F907F906F905F90AC
:100C10004F903F902F900895CF93DF931F92CDB7C1
:100C2000DEB7698341E050E0BE016F5F7F4F0E94F5
:100C30007C040F90DF91CF910895CF93DF93EC0167
:100C4000898D9A8D009739F481E090E09B838A83A7
:100C500080E090E00BC0FC01138212820E947C04B1
:100C6000E98DFA8D22813381232B71F7DF91CF91AA
:100C700008958F929F92AF92BF92CF92DF92EF92A0
:100C8000FF920F931F93CF93DF9300D000D0CDB787
:100C9000DEB77C0180E2689F6001112496012D5827
:100CA0003D4FD9011B969C91917121F0842F827444
:100CB00009F097C0142FF701628B80910101909188
:100CC0000201A0910301B091040186879787A08B50
:100CD000B18BF601ED58FD4F4489558960E070E015
:100CE000BA0155274427D70157964D935D936D93CD
:100CF0007C935A97828D938DA0E0B0E0482B592BBE
:100D00006A2B7B2BD70157964D935D936D937C9304
:100D10005A97D9011B968C91887159F4848D958DC1
:100D2000A68DB78DF701838B948BA58BB68B81E055
:100D300012C0803109F055C097012D5E3F4FD70199
:100D40005B968D919C915C970E94C311882309F456
:100D500048C084E0F7018583812F8F70D7011496F6
:100D60008C931497F70116821782108611861A96B3
:100D70001D921D921D921C921D9716FF34C0159650
:100D80008C91813071F511FF2CC0F7014389548992
:100D900065897689452B462B472B09F461C040E0D5
:100DA00050E0BA01C7010E94E6038823D1F0F701A1
:100DB0008788908CA18CB28CC38CD48C82E090E01C
:100DC000A0E0B0E0F60180839183A283B3839E010B
:100DD0002F5F3F4FB501A401C6010E943F11811151
:100DE00004C080E03DC081E03BC000E010E098011D
:100DF000B501A401C6010E949F10882391F3898048
:100E00009A80AB80BC80D60157968C91803129F0B6
:100E100088EF9FEFAFEFBFE004C088EF9FEFA0E047
:100E2000B0E088169906AA06BB0688F2D701579645
:100E30001D921D921D921C925A97F701138A148AD3
:100E4000158A168A848180688483C7010E9469019B
:100E5000882339F240E050E0BA01C7010E94E6035E
:100E60000F900F900F900F90DF91CF911F910F91E6
:100E7000FF90EF90DF90CF90BF90AF909F908F90BA
:100E800008954F925F926F927F92AF92BF92CF92EE
:100E9000DF92EF92FF920F931F93CF93DF93CDB723
:100EA000DEB72B970FB6F894DEBF0FBECDBF7C0127
:100EB000CE0101966C01FC0190E28BE08C0D9193C8
:100EC0008E13FDCFDA0130E047E09D91992339F18F
:100ED0009E3219F0E2EAF1E00AC04A3009F472C128
:100EE00038E04AE0F2CF3196891709F46BC184915A
:100EF0008111F9CF431708F465C18FED890F8E3545
:100F000008F060C181E0830FF601E30FF11D3FE9B6
:100F1000390F3A3108F490529083382FD6CF898117
:100F2000803209F44FC1B22E8B01DB015B968D91AB
:100F30009C915C97F701948F838F16961D921D925A
:100F40001D921C921997FB01128613861486158632
:100F5000712CF80182859385A485B58543895489D0
:100F60006589768984179507A607B70708F061C0D9
:100F700025E0B695A795979587952A95D1F7F82FEF
:100F8000FF706F2ED80115968C91823008F41AC12B
:100F9000C8010E94B20297FD15C1F80182859385B0
:100FA000A485B5854F96A11DB11D82879387A4871F
:100FB000B587F0E26F9EC0011124BC016D587D4FD2
:100FC0006115710509F4FEC0DB012C91222319F093
:100FD000253EC1F427C071100EC0F701628A40910E
:100FE0000101509102016091030170910401468753
:100FF0005787608B718BFC01ED58FD4F808181110B
:1010000013C015C04BE050E0C6010E94352A892B61
:1010100009F09FCF8B2D8073803309F4D3C04B2D03
:10102000662DCCC07720C9F27724739492CF7724B1
:1010300073948B2D8271823109F0C4C07720D1F076
:10104000D7011E966D917D918D919C91519741E0B4
:101050000E94270F882309F4B5C0F7016289F0E2E6
:101060006F9FB00111246D587D4F6115710509F016
:1010700079C0A8C0D80115968C91823009F4A2C01D
:10108000C8010E94AF01882309F49CC0D8015B9677
:10109000ED91FC915C9716964D905D906D907C90D3
:1010A0001997B2E04B1A510861087108058404C011
:1010B000440C551C661C771C0A94D2F786859785CC
:1010C000A089B189480E591E6A1E7B1EA480E1E0EA
:1010D0004E1A510861087108AA2009F10E94EA0E0F
:1010E000882309F46FC0E3E7F2E0119224E0E337CC
:1010F000F207D9F7D301C2018A0D911DA11DB11DBF
:101100008093010190930201A0930301B093040125
:1011100080916E02816080936E02AA94DDCFD80127
:101120005B96ED91FC915C9780E092E0A0E0B0E0EE
:10113000058404C0880F991FAA1FBB1F0A94D2F709
:10114000F8014389548965897689840F951FA61F04
:10115000B71F838B948BA58BB68BD70152961C92AD
:1011600063E772E080E2FB0111928A95E9F78BE078
:10117000F601DB0101900D928A95E1F781E298E298
:10118000DB0151969C938E93509720E038E01F9698
:101190003C932E931E9753969C938E9352975996F9
:1011A0009C938E93589757963C932E9356970E94F4
:1011B000EA0E882339F04B2DF7016289C7010E949E
:1011C000390601C080E02B960FB6F894DEBF0FBE43
:1011D000CDBFDF91CF911F910F91FF90EF90DF90E6
:1011E000CF90BF90AF907F906F905F904F90089599
:1011F0000F931F93CF93DF93FC01818D928D009706
:10120000B9F0EF010E94B2028C010F3F8FEF180777
:1012100091F0898D9A8DFC01428553856485758591
:1012200041505109610971090E94E603C80105C0D6
:1012300080E090E002C08FEF9FEFDF91CF911F9190
:101240000F910895CF93DF93EC010E9469018823E9
:1012500011F01D8281E0DF91CF910895EF92FF920E
:101260000F931F93CF93DF93EC017B018A011B82C5
:101270001A8288EE93E0A0E0B0E08C839D83AE8379
:10128000BF8387E191E0998388838DE190E00E949C
:101290003E289A8F898F009779F02DE1F701DC01C4
:1012A00001900D922A95E1F74CE050E0B801CE0193
:1012B0000C960E945D2A188EDF91CF911F910F919D
:1012C000FF90EF900895FC01DB0112968D919C91A7
:1012D00013979383828387E291E0918380831496AE
:1012E0008C911497848315968C9115978583169607
:1012F0004D915D916D917C911997468357836087DD
:1013000071871A964D915D916D917C911D974287E1
:101310005387648775871E964D915D916D917C9181
:10132000519746875787608B718B52968C91529755
:10133000828B53964D915D916D917C915697438B25
:10134000548B658B768B57964D915D916D917C9109
:101350005A97478B508F618F728F5B968D919C91BE
:101360005C97948F838F0895AF92BF92CF92DF9254
:10137000EF92FF920F931F93CF93DF935C017C0159
:1013800087E0E80EF11CC0E0D0E0062F10E0670116
:1013900061E0F70181917F010E942217B8010C2EB4
:1013A00002C0759567950A94E2F76170F601808135
:1013B0000E94F2162196C430D10549F7C501DF918C
:1013C000CF911F910F91FF90EF90DF90CF90BF9042
:1013D000AF900C94C603AF92BF92CF92DF92EF9280
:1013E000FF920F931F93CF93DF93EC01F62E642FA0
:1013F0008C810E94F2168D818F3F19F060E00E946F
:10140000F2168F850F2D10E084FF2DC05E0187E05E
:10141000A80EB11CE12CF12C650161E0F501819170
:101420005F010E942217B8010E2C02C075956795C6
:101430000A94E2F76170F60180810E94F216FFEFD4
:10144000EF1AFF0A88E0E816F10431F7CE01DF91C8
:10145000CF911F910F91FF90EF90DF90CF90BF90B1
:10146000AF900C94C603B80184E0759567958A9592
:10147000E1F7CE010E94B4096F2DCE01DF91CF912B
:101480001F910F91FF90EF90DF90CF90BF90AF90A2
:101490000C94B40941E00E94EB0981E090E00895CA
:1014A00040E00C94EB090895DC015196ED91FC911C
:1014B0005297908150968C918095892380830895CE
:1014C00020917102309172022817390781F49091AE
:1014D000700280916F02981751F0E0917002F0E075
:1014E000E758FB4F8081082E000C990B08958FEF71
:1014F0009FEF0895209171023091720228173907E9
:1015000039F48FB7F89410926F02109270028FBF67
:10151000089520917102309172022817390771F4F1
:1015200080916F022091700290E0805C9F4F821B3F
:10153000910960E470E00E942B2E089580E090E015
:101540000895209171023091720228173907B9F479
:101550009091700280916F02981789F0E09170026B
:10156000F0E0E758FB4F80812091700230E02F5F60
:101570003F4F2F7333272093700290E008958FEF31
:101580009FEF0895862F642F0C942217FC0181850C
:101590000E94C91621E0892B09F420E0822F0895CA
:1015A0000F931F93CF93DF93EB010E9484178B015E
:1015B0000E94E1038F3F49F00E948417601B710B6A
:1015C0006C177D07A8F380E001C081E0DF91CF9127
:1015D0001F910F9108950F931F93CF93DF93EC0109
:1015E00060E070E0CB01E99120ED2E0F2A30C0F4CD
:1015F000AAE0B0E09B01AC010E94672E0E2FEE0F17
:10160000110B220B330BDC01CB01800F911FA21FAA
:10161000B31FBC01CD016053710981099109E3CF6A
:10162000DF91CF911F910F9108950F931F93CF9347
:10163000C1E0809128068D3221F0C0E008E216E07A
:1016400002C009E216E0C8010E94EB0A9B01AC014E
:10165000A4E6B0E00E94672EF801DF01219130ED91
:10166000320F3A30D0F32E3269F511962C91119742
:1016700030ED320F3A3030F5022E000C330B205390
:1016800031094AE0429F8001439F100D1124012E31
:10169000000C220B330B600F711F821F931F1296D9
:1016A0000C9120ED200F2A3068F4002E000C110B55
:1016B00000531109012E000C220B330B600F711F18
:1016C000821F931FCC2339F090958095709561957A
:1016D0007F4F8F4F9F4FCF911F910F9108954F9242
:1016E0005F926F927F928F929F92AF92BF92CF92B2
:1016F000DF92EF92FF92CF93DF9388E296E00E9411
:10170000EB0A2B013C0124E630E040E050E00E946F
:101710003F2E9B01AC0160EA76E881E090E00E94F8
:101720000F2E6B017C01E8E2F6E0819190ED980FBD
:101730009A30D8F38E3219F5EF0180E1882E87E2D6
:10174000982EA12CB12CA99180ED8A0F8A30B8F483
:101750000A2E000CBB0BD097A50194010E94722E9B
:10176000C60ED71EE81EF91EC501B4012AE030E0FE
:1017700040E050E00E943F2E49015A01E4CFC701EA
:10178000B6016D5F7F4F8F4F9F4F26E030E040E006
:1017900050E00E943F2E69017A01C301B20124E6A4
:1017A00030E040E050E00E943F2E60E472E48FE0C1
:1017B00090E00E940F2E6C0D7D1D8E1D9F1DDF91F0
:1017C000CF91FF90EF90DF90CF90BF90AF909F9020
:1017D0008F907F906F905F904F90089520E00197D9
:1017E0002FEF8F3F9207D9F70895DF92EF92FF9284
:1017F0000F931F93CF93DF93EC01298D3A8D211521
:10180000310529F481E090E09B838A835AC0162F2A
:10181000DFB6F8948B8D81FD4DC0CE010E94540A35
:10182000898D9A8D04960E94EE0B8B8D98E0E92E9F
:10183000F12C01E081FF1AC0802F812321F0CE011D
:101840000E94540A06C0E989FA8990818889892B07
:101850008083898D9A8D0E94EE0B000F81E0E81A3B
:10186000F10851F7CE010E94540A1CC0802F812339
:1018700039F0E989FA8990818889892B808303C0AE
:10188000CE010E94540A898D9A8D0E94EE0B000FA2
:1018900081E0E81AF10851F7E989FA89908188898D
:1018A000892B8083DFBE898D9A8D0E94EE0B21E00B
:1018B00030E007C0E989FA8990818889892B808383
:1018C000AFCFC901DF91CF911F910F91FF90EF90A2
:1018D000DF900895EF92FF920F931F93CF93DF93C2
:1018E000C0917102D0917202209709F450C09B8D73
:1018F000EE85FF858D8591FF04C09081892329F4B1
:1019000046C09081892309F042C08B899C890E943E
:10191000EE0B88E0E82EF12C10E001E08D899E8925
:101920000E94EE0BEE85FF8590818D85892311F055
:10193000102B03C0802F80951823000F81E0E81A38
:10194000F10861F78F89988D0E94EE0B8B8D81FDD8
:10195000109580916F022091700290E001968F7334
:10196000992730E08217930779F0E0916F02F0E059
:10197000E758FB4F108380916F0290E001968F73C0
:10198000992780936F0203C08B8D81608B8FDF91CD
:10199000CF911F910F91FF90EF9008951F920F929A
:1019A0000FB60F9211242F933F934F935F936F9332
:1019B0007F938F939F93AF93BF93EF93FF930E9477
:1019C0006A0CFF91EF91BF91AF919F918F917F91A1
:1019D0006F915F914F913F912F910F900FBE0F909C
:1019E0001F9018951F920F920FB60F9211242F93EC
:1019F0003F934F935F936F937F938F939F93AF9397
:101A0000BF93EF93FF930E946A0CFF91EF91BF91F8
:101A1000AF919F918F917F916F915F914F913F9186
:101A20002F910F900FBE0F901F9018951F920F923D
:101A30000FB60F9211242F933F934F935F936F93A1
:101A40007F938F939F93AF93BF93EF93FF930E94E6
:101A50006A0CFF91EF91BF91AF919F918F917F9110
:101A60006F915F914F913F912F910F900FBE0F900B
:101A70001F90189561E0FC0184810C94F216CF93BD
:101A8000DF93EC018FEF8EBD4FEF8F8198859C0126
:101A90002F5F3F4F38872F838130924028F40DB459
:101AA00007FEFDCF4EBDF1CF0DB407FEFDCFCE0139
:101AB0000E943A0D1E82DF91CF910895CF92DF925E
:101AC000FF920F931F93CF93DF9300D000D0CDB739
:101AD000DEB76C01F62EFC018681882359F0C60121
:101AE00029833A834B835C830E943F0D5C814B8149
:101AF0003A81298160E0F601848129833A834B830E
:101B00005C830E94F2166CE271E0C6010E94D00A6A
:101B10008F2D80640E94DC0308E110E05C814B8122
:101B20003A812981DA01C901002E04C0B695A79532
:101B3000979587950A94D2F729833A834B835C83E0
:101B40000E94DC030850110929813A814B815C8194
:101B5000083FFFEF1F0731F7FF2029F088E0F81258
:101B600004C087E803C085E901C08FEF0E94DC0351
:101B700010E00E94E103F601828787FF04C01F3F47
:101B800011F01F5FF6CF0F900F900F900F90DF9125
:101B9000CF911F910F91FF90DF90CF900895AF925A
:101BA000BF92CF92DF92EF92FF920F931F93CF934A
:101BB000DF93EC016901C801820F931F81309240CD
:101BC00008F085C08E81882371F088819981AA816F
:101BD000BB81481759076A077B0729F48F819885CD
:101BE000C816D906B0F5488359836A837B838B85F1
:101BF000833039F089E0440F551F661F771F8A959F
:101C0000D1F79A01AB0161E1CE010E945E0D8823FC
:101C100019F083E08D835BC00E9484175B010E94F2
:101C2000E1038A878F3F49F40E9484176A197B0970
:101C30006D327140A0F38FE003C08E3F31F08DE034
:101C40008D83CE010E943A0D42C018861F8281E02A
:101C50008E838FEF8EBD2FEF8F8198858C159D051C
:101C600050F40DB407FEFDCF2EBD8F8198850196EF
:101C700098878F83F1CFC8010197F7014FEF9F013C
:101C80002E193F092817390738F40DB407FEFDCF88
:101C90002EB521934EBDF3CF0DB407FEFDCF2EB56B
:101CA000F701E80FF91F20838F819885080F191F0E
:101CB00018870F838985882319F00115124060F079
:101CC0008E81882349F0CE010E943F0D05C0CE01D0
:101CD0000E943A0D80E001C081E0DF91CF911F9119
:101CE0000F91FF90EF90DF90CF90BF90AF9008954D
:101CF0000F931F93CF93DF93EC0189014115510599
:101D00006105710511F482E147C08B85833039F09C
:101D100089E0440F551F661F771F8A95D1F79A01F6
:101D2000AB0168E1CE010E945E0D882311F084E0D2
:101D300033C08EEF8EBD80E090E00DB407FEFDCF86
:101D4000F801E80FF91F20812EBD0DB407FEFDCF6D
:101D500021812EBD0296811522E0920771F70DB404
:101D600007FEFDCF8FEF0E94DC038FEF0E94DC03A4
:101D70000E94E1038A878F71853031F081E18D8384
:101D8000CE010E943A0D09C068E572E0CE010E94C2
:101D9000D00A811107C085E18D83CE010E943A0DE2
:101DA00080E013C020E030E0A9016DE0CE010E9488
:101DB0005E0D811104C00E94E103882311F084E1CB
:101DC000EBCFCE010E943A0D81E0DF91CF911F91C0
:101DD0000F910895CF93DF9380916E02882399F13C
:101DE000C0917304D091740440910101509102019B
:101DF000609103017091040123E732E0CE010E945B
:101E0000780E811102C080E01FC04091750450918E
:101E1000760460917704709178044115510561054D
:101E2000710579F023E732E0CE010E94780E882315
:101E300051F3109275041092760410927704109268
:101E4000780410926E0281E0DF91CF9108958F9215
:101E50009F92AF92BF92EF92FF920F931F93CF93F7
:101E60004B015C01C42F8091010190910201A0916E
:101E70000301B091040188159905AA05BB0501F17C
:101E80000E94EA0E811102C080E020C083E7E82EA4
:101E900082E0F82E00E012E020E030E0B501A4017D
:101EA00080917304909174040E94CF0D882361F394
:101EB0008092010190920201A0920301B09204016C
:101EC00080916E02C82BC0936E0281E0CF911F916A
:101ED0000F91FF90EF90BF90AF909F908F900895DB
:101EE0008F929F92AF92BF92CF92DF92EF92FF922A
:101EF000CF93DF93C82F89EB94E090937404809381
:101F00007304CC2369F1C53010F080E00DC140E0CE
:101F100060E070E0CB010E94270F8823B1F320E13D
:101F2000C29FC00111248D599D4FFC01E254FE4F08
:101F300020812F7751F73C964081518162817381D6
:101F4000443651056105710500F33497C080D18096
:101F5000E280F380C114D104E104F10421F4D5CF6F
:101F6000C12CD12C760140E0C701B6010E94270F99
:101F7000882359F280917E0290917F0281159240D0
:101F800021F6A0918302AA2309F4BFCF60918102B8
:101F9000709182026115710509F4B7CF209180021A
:101FA000222309F4B2CFA093D7042093C90480E080
:101FB00030E0E1E0F0E0C82FAF01082E02C0440F8E
:101FC000551F0A94E2F72417350741F0982F8F5FC9
:101FD000983089F789E08093D20497CF8093D20418
:101FE0002091890230918A022115310519F040E0D3
:101FF00050E008C0209197023091980240919902D8
:1020000050919A022093CA043093CB044093CC049D
:102010005093CD0446015701860E971EA11CB11C9A
:102020008092D8049092D904A092DA04B092DB0492
:10203000E0918402F0918502F093DE04E093DD04E8
:10204000B0E00E94672E860E971EA81EB91E8092D1
:10205000DF049092E004A092E104B092E20485E0F3
:10206000EE0FFF1F8A95E1F7E150FE4FEF2FFF279C
:10207000E6958E0E9F1EA11CB11C8092D3049092F7
:10208000D404A092D504B092D60420918602309157
:1020900087022115310521F0A90160E070E008C038
:1020A0004091930250919402609195027091960232
:1020B000D701C60188199909AA09BB09840F951F80
:1020C000A61FB71F04C0B695A79597958795CA9583
:1020D000D2F78093CE049093CF04A093D004B09312
:1020E000D104853F2FE09207A105B10510F48CE0E3
:1020F00018C0853F9F4FA105B10510F480E111C0C4
:1021000080919F029091A002A091A102B091A202A1
:102110008093DF049093E004A093E104B093E20481
:1021200080E28093DC0481E0DF91CF91FF90EF901B
:10213000DF90CF90BF90AF909F908F9008954F9277
:102140005F926F927F928F929F92AF92BF92CF9247
:10215000DF92EF92FF920F931F93CF93DF93EC01E7
:102160006A017B0128013901423051056105710581
:1021700010F480E073C089859A85AB85BC85019693
:10218000A11DB11D84179507A607B70790F38B888B
:102190009C88AD88BE888F89803129F4BB27AF2DFC
:1021A0009E2D8D2D09C0DB01CA0147E0B695A7958C
:1021B000979587954A95D1F7880E991EAA1EBB1E42
:1021C0008091010190910201A0910301B09104015D
:1021D00088169906AA06BB0679F48F898031A1F486
:1021E000DD24EE24FF24C601880F991FFC01ED5861
:1021F000FD4F5182408219C040E0C501B4010E94E8
:10220000270F8111EACFB5CFE894C7F8DD24EE247B
:10221000FF24C601880F991F880F991FFC01ED58F4
:10222000FD4F408251826282738280916E02816092
:1022300080936E028A89823080F08D819E81AF8189
:10224000B885880E991EAA1EBB1E809275049092B6
:102250007604A0927704B092780481E0DF91CF9168
:102260001F910F91FF90EF90DF90CF90BF90AF90B4
:102270009F908F907F906F905F904F9008958F9276
:102280009F92AF92BF92CF92DF92EF92FF920F9305
:102290001F93CF93DF93FC0181859285A385B4853D
:1022A0000196A11DB11D84179507A607B70710F465
:1022B00080E05CC083899489A589B689C789C031CB
:1022C00029F4852E962EA72EBB2409C04A015B0156
:1022D000C7E0B694A79497948794CA95D1F7E9017B
:1022E0006A017B018F01BC01CD01680D791D8A1D3A
:1022F0009B1D8090010190900201A0900301B0907D
:102300000401681579058A059B0599F4F801878908
:102310008031A9F4B701A601552766277727440F16
:10232000551FFA01ED58FD4F80819181A0E0B0E08A
:1023300018C040E00E94270F8111E8CFB9CFB70144
:10234000A6014F77552766277727440F551F440F5F
:10235000551FFA01ED58FD4F80819181A281B38113
:10236000BF7088839983AA83BB8381E0DF91CF917B
:102370001F910F91FF90EF90DF90CF90BF90AF90A3
:102380009F908F9008954F925F926F927F92AF923D
:10239000BF92CF92DF92EF92FF920F931F93CF9352
:1023A000DF9300D000D0CDB7DEB78C0149835A83CC
:1023B0006B837C835901C12CD12C7601412C82E0A6
:1023C000582E612C712C49815A816B817C819E0130
:1023D0002F5F3F4FC8010E943F11882351F1D30165
:1023E000C201F801058404C0880F991FAA1FBB1FF2
:1023F0000A94D2F7C80ED91EEA1EFB1E49815A81E3
:102400006B817C818789803129F088EF9FEFAFEF66
:10241000BFE004C088EF9FEFA0E0B0E04817590785
:102420006A077B0780F2F501C082D182E282F382E3
:1024300081E00F900F900F900F90DF91CF911F913F
:102440000F91FF90EF90DF90CF90BF90AF907F9073
:102450006F905F904F9008950F931F93CF93DF93EA
:10246000EC01623018F08F8588608F876B8B1C8A37
:102470008BE996E80197F1F760E08C810E94F216F3
:1024800060E08E810E94F2168D818F3F19F060E02E
:102490000E94F2166F8564FD1DC063E0CE010E94AC
:1024A000B40903E213E2C8010197F1F763E0CE013A
:1024B0000E94B409C8010197F1F763E0CE010E94C0
:1024C000B40987E291E00197F1F762E0CE010E9442
:1024D000B40916C06062CE010E94500A83E293E202
:1024E0000197F1F76F856062CE010E94500A87E282
:1024F00091E00197F1F76F856062CE010E94500A6A
:102500006F856062CE010E94500A84E0888B6CE087
:10251000CE010E94500ACE010E94911882E0898B60
:1025200066E0CE01DF91CF911F910F910C94500A7C
:10253000CF92DF92EF92FF920F931F93CF93DF938F
:1025400077FF1DC06A017B01EC016DE20E949A14C5
:102550008C0144275527BA014C195D096E097F0982
:102560002AE0CE010E94CA14800F911FDF91CF9103
:102570001F910F91FF90EF90DF90CF9008952AE088
:10258000DF91CF911F910F91FF90EF90DF90CF904F
:102590000C94CA14CF93DF93CDB7DEB728970FB64C
:1025A000F894DEBF0FBECDBF98E0EBE0F1E0DE01B6
:1025B000119601900D929A95E1F79091580689171E
:1025C00010F08FEF890FFE013196E80FF11DE80F33
:1025D000F11D6081606885E496E028960FB6F89456
:1025E000DEBF0FBECDBFDF91CF910C94500A2F926A
:1025F0003F924F925F926F927F928F929F92AF9293
:10260000BF92CF92DF92EF92FF920F931F93CF93DF
:10261000DF93CDB7DEB7C756D1090FB6F894DEBF4A
:102620000FBECDBF5C014B01A6964FAFA6973E01F2
:102630008EE1680E711C63EE74E0C3010E946309B1
:102640001C821B8287E291E09A8389831E82640147
:102650008E010F5F1F4F230118016FE270E0C6016A
:102660000E944B2A009709F442C0F60120812F32C4
:1026700021F4FFEFCF1ADF0AF0CF8C198D3008F06C
:102680008CE0E82EF12CA701B601CE01885A9F4FAD
:102690000E945D2AE8E5F0E0EC0FFD1FEE0DFF1D46
:1026A0001082C8010E942209F8018581882351F017
:1026B0001EAE1DAE87E291E09CAF8BAF21961FAEA0
:1026C000219721C021E0AE01485A5F4FB201C801F5
:1026D0000E944107882361F3CE0CDF1CC2010E94D7
:1026E0002209942D852D2801092F182FB6CFC60158
:1026F00088199909A8969FAF8EAFA897B201CE010D
:10270000CB960E946309A896EEADFFADA8978E0EFA
:102710009F1EF4018081811109C0BE01655C7F4F5D
:10272000C1010E9463094AE252E04BC019A218A2FB
:1027300087E291E09F8F8E8F1BA221968FAD21970C
:10274000811113C0F5011382128288EE93E0A0E09C
:10275000B0E084839583A683B78387E191E091837A
:102760008083128E118E148630C08250A6962FADB3
:10277000A697A401823040F463EE74E0C3010E9486
:10278000410781110DC0DECFBE01655C7F4FC301E3
:102790000E9441078823B1F2CE01CB960E94220904
:1027A000A6968FADA697867039F049A95AA96BA94C
:1027B0007CA9C3010E94E603B301C1010E94630921
:1027C000A401B101C5010E942E09C501C959DF4FFD
:1027D0000FB6F894DEBF0FBECDBFDF91CF911F9132
:1027E0000F91FF90EF90DF90CF90BF90AF909F90B0
:1027F0008F907F906F905F904F903F902F900895B3
:102800000F931F93CF93DF93EC010C811D810C5F1D
:102810001F4FB8010E940516882369F0288139816D
:102820008C819D816CE272E0820F931F0E94562A78
:102830001D830C8303C0CE010E942C16CE01DF91B4
:10284000CF911F910F910895CF92DF92EF92FF9257
:102850000F931F93CF93DF936C01EB017B01E40E89
:10286000F51E00E010E0CE15DF0561F06991D6019C
:10287000ED91FC910190F081E02DC6010995080FC2
:10288000191FF1CFC801DF91CF911F910F91FF90D8
:10289000EF90DF90CF900895833081F028F481305D
:1028A00099F08230A1F008958630A9F08730B9F010
:1028B0008430D1F4809180008F7D03C080918000AE
:1028C0008F7780938000089584B58F7702C084B598
:1028D0008F7D84BD08958091B0008F7703C0809173
:1028E000B0008F7D8093B00008953FB7F894809139
:1028F0005F0690916006A0916106B091620626B5D0
:10290000A89B05C02F3F19F00196A11DB11D3FBF27
:10291000BA2FA92F982F8827820F911DA11DB11DB5
:10292000BC01CD0143E0660F771F881F991F4A95B0
:10293000D1F70895DC01ED91FC910190F081E02D3B
:1029400009940F931F93CF93DF93EC016DE00E94E6
:102950009A148C016AE0CE010E949A14800F911F94
:10296000DF91CF911F910F9108956115710579F055
:10297000FB0101900020E9F73197AF01461B570B8F
:10298000DC01ED91FC910280F381E02D099480E05F
:1029900090E008958F929F92AF92BF92CF92DF9274
:1029A000EF92FF920F931F93CF93DF93CDB7DEB7D4
:1029B000A1970FB6F894DEBF0FBECDBF6C01142FE8
:1029C000E52FCB01022F19A2223008F40AE07E0184
:1029D00021E2E20EF11C802E912CA12CB12C612F52
:1029E0007E2FA50194010E943F2E029F10191124F1
:1029F00081E0E81AF1081A3014F4105D01C0195C86
:102A0000F7011083122FE32FCA01232B242B252B30
:102A100031F7B701C6010E94B514A1960FB6F8941C
:102A2000DEBF0FBECDBFDF91CF911F910F91FF9001
:102A3000EF90DF90CF90BF90AF909F908F900895D0
:102A40004F925F926F927F928F929F92AF92BF92BE
:102A5000CF92DF92EF92FF92CF93DF93EC016A0166
:102A60007B01B22E9A01AB01C701B6010E94E12D94
:102A7000882319F061E372E027C026013701E8944A
:102A800077F82FEF3FEF4FE75FE7C301B2010E94F6
:102A9000E12D81110DC02FEF3FEF4FE75FE7C3013D
:102AA000B2010E944B2B18161CF465E372E00CC0B7
:102AB0002FEF3FEF4FE75FE4C701B6010E94152DEE
:102AC00018169CF469E372E0CE01DF91CF91FF907C
:102AD000EF90DF90CF90BF90AF909F908F907F90BE
:102AE0006F905F904F900C94B5142FEF3FEF4FE72E
:102AF0005FECC701B6010E944B2B87FDE3CF20E0BE
:102B000030E0A901C701B6010E944B2B87FF0AC024
:102B10006DE2CE010E949A144C01F7FAF094F7F896
:102B2000F09402C0812C912CA12C60E070E080E038
:102B30009FE3AB1440F420E030E040E251E40E9417
:102B4000552BA394F6CF9B01AC01C701B6010E949F
:102B50006D2A2B013C010E94CE2B6B017C010E944F
:102B6000FD2B9B01AC01C301B2010E946C2A2B0119
:102B70003C012AE0B701A601CE010E94CA147C01E3
:102B8000E80CF91CBB2039F06DE372E0CE010E9425
:102B9000B514E80EF91EDB2CDD2029F120E030E031
:102BA00040E251E4C301B2010E94222D2B013C01FD
:102BB0000E94C72B4B01770FAA08BB08B501A401DF
:102BC000CE010E949812E80EF91EC501B4010E94C0
:102BD000FF2B9B01AC01C301B2010E946C2A2B01A7
:102BE0003C01DA94D9CFC701DF91CF91FF90EF90EC
:102BF000DF90CF90BF90AF909F908F907F906F901D
:102C00005F904F9008950C94B5140F931F93CF933A
:102C1000DF93EC0188819981009729F02A813B811B
:102C20002617370788F48B016F5F7F4F0E946B294F
:102C3000009761F0998388831B830A832C813D81EF
:102C4000232B11F4FC01108281E001C080E0DF91B0
:102C5000CF911F910F910895CF93DF93EC0188815D
:102C60009981009711F00E94D328198218821D8241
:102C70001C821B821A82DF91CF910895CF92DF923E
:102C8000EF92FF920F931F93CF93DF93CDB7DEB7F1
:102C900029970FB6F894DEBF0FBECDBF8C01862FEB
:102CA000F801118210821382128215821482168218
:102CB00050E09E012F5F3F4F6901B90190E00E94F3
:102CC000F327F60101900020E9F731977F01EC1816
:102CD000FD08B701C8010E940516811104C0C80192
:102CE0000E942C1608C0F801F582E482B6018081AA
:102CF00091810E94562A29960FB6F894DEBF0FBE26
:102D0000CDBFDF91CF911F910F91FF90EF90DF909A
:102D1000CF900895EF92FF920F931F93CF93DF937D
:102D2000FC01118210821382128215821482168293
:102D30008617970739F1DB010D911C911197011549
:102D4000110501F1EC011496ED90FC901597B70177
:102D50000E940516811109C0CE01DF91CF911F910C
:102D60000F91FF90EF900C942C16FD82EC82B8012D
:102D700088819981DF91CF911F910F91FF90EF9002
:102D80000C94562ADF91CF911F910F91FF90EF90F5
:102D90000895CF93DF93282F30E0F901E850FE4FDC
:102DA0008491F901E652FE4FD491F901EA53FE4FA6
:102DB000C491CC2391F081110E944C14EC2FF0E0CF
:102DC000EE0FFF1FE454FE4FA591B491EC91ED235B
:102DD00081E090E021F480E002C080E090E0DF91AB
:102DE000CF9108951F93CF93DF93282F30E0F901FF
:102DF000E850FE4F8491F901E652FE4FD491F9015B
:102E0000EA53FE4FC491CC23C9F0162F81110E94C2
:102E10004C14EC2FF0E0EE0FFF1FEE54FE4FA59187
:102E2000B4918FB7F894111105C09C91ED2FE095E6
:102E3000E92302C0EC91ED2BEC938FBFDF91CF9192
:102E40001F910895CF93DF9390E0FC01E652FE4F6F
:102E50002491FC01EA53FE4F8491882361F190E0B4
:102E6000880F991FFC01E251FE4FC591D491FC01DE
:102E7000EE54FE4FA591B491611109C09FB7F8942B
:102E80008881209582238883EC912E230BC06230A9
:102E900061F49FB7F8943881822F809583238883CB
:102EA000EC912E2B2C939FBF06C08FB7F894E8812E
:102EB0002E2B28838FBFDF91CF910895CF92DF9281
:102EC000EF92FF92CF93DF936B017C010E94751408
:102ED000EB01C114D104E104F10479F00E947514EE
:102EE0006C1B7D0B683E7340A0F381E0C81AD108CB
:102EF000E108F108C851DC4FECCFDF91CF91FF9092
:102F0000EF90DF90CF9008952FB7F89460915B0613
:102F100070915C0680915D0690915E062FBF0895CA
:102F20001F920F920FB60F9211242F933F938F93FE
:102F30009F93AF93BF9380915B0690915C06A091A5
:102F40005D06B0915E0630915A0626E0230F2D37BC
:102F500020F40296A11DB11D05C029E8230F039698
:102F6000A11DB11D20935A0680935B0690935C06C9
:102F7000A0935D06B0935E0680915F069091600617
:102F8000A0916106B09162060196A11DB11D8093CA
:102F90005F0690936006A0936106B0936206BF91AE
:102FA000AF919F918F913F912F910F900FBE0F90F6
:102FB0001F90189581E00E94CA1280914A028111E7
:102FC00006C06FE372E085E496E00C94031640912E
:102FD0004B0250E04F5F5F4F052E000C660B770BE6
:102FE00085E496E00C9498120F931F93CF93DF9390
:102FF000FC01A685B7858D01005C1F4FE801888123
:10300000998101968F739927AD014E5B5F4FEA015D
:103010002881398182179307D1F3E801288139810A
:10302000A20FB31F6C93A685B785A05CBF4F119606
:103030009C938E93A689B7892C9181E090E0078CB0
:1030400002C0880F991F0A94E2F7822B8C9381E0CB
:1030500081A30488F589E02D80818064808381E0EC
:1030600090E0DF91CF911F910F910895FC0181A114
:10307000882329F0A489B5898C9186FFFBCF11A202
:103080000895FC01A485B585FD01E05CFF4F20811A
:1030900031813296808191812817390779F08081BA
:1030A0009181A80FB91F8C91208131812F5F3F4FF3
:1030B0002F7333273183208390E008958FEF9FEFA4
:1030C0000895DC011C96ED91FC911D97DF01A05C39
:1030D000BF4F2D913C91119712968D919C91119714
:1030E0002817390739F08D919C91E80FF91F8081DD
:1030F00090E008958FEF9FEF0895FC0124853585BA
:10310000F901E05CFF4F808191813296208131810D
:10311000821B930B8F73992708958AE895E00C948E
:103120007D1861E00E94500A8BE99FE00197F1F75A
:1031300008951F920F920FB60F9211242F933F9371
:103140008F939F93EF93FF93209142053091430516
:1031500080914405909145052817390731F48091F5
:10316000C1008F7D8093C10014C0E0914405F091AF
:103170004505EE5FFA4F2081809144059091450509
:1031800001968F739927909345058093440520936A
:10319000C600FF91EF919F918F913F912F910F90DA
:1031A0000FBE0F901F9018951F920F920FB60F929F
:1031B00011242F934F935F938F939F93EF93FF93DC
:1031C0008091C00082FD1CC02091C60080918605C0
:1031D0009091870501968F739927409188055091AA
:1031E00089058417950771F0E0918605F0918705B0
:1031F000EA5BFA4F2083909387058093860502C08F
:103200008091C600FF91EF919F918F915F914F91B7
:103210002F910F900FBE0F901F901895CF93DF93B3
:10322000CDB7DEB7C254D1090FB6F894DEBF0FBEDA
:10323000CDBF789484B5826084BD84B5816084BD3F
:1032400085B5826085BD85B5816085BD80916E0044
:10325000816080936E001092810080918100826075
:1032600080938100809181008160809381008091B2
:1032700080008160809380008091B10084608093A1
:10328000B1008091B00081608093B00080917A009D
:10329000846080937A0080917A00826080937A00C3
:1032A00080917A00816080937A0080917A008068B2
:1032B00080937A001092C10062E085E496E00E945B
:1032C0002C1264E170E080E090E00E945E17E091D3
:1032D0009E05F0919F0581E090E09C010090AA0579
:1032E00002C0220F331F0A94E2F72083E0919A056F
:1032F000F0919B051082E0919C05F0919D0520E1E5
:1033000020831092AB05E091A005F091A1054081CA
:103310009C010090A60502C0220F331F0A94E2F719
:10332000242B2083E091A005F091A10540819C0110
:103330000090A70502C0220F331F0A94E2F7242B46
:103340002083E091A005F091A10540819C010090AF
:10335000A80502C0220F331F0A94E2F7242B208312
:10336000E091A005F091A10520810090A90502C07F
:10337000880F991F0A94E2F7809582238083109228
:10338000D0051092CF051092CE051092CD05109267
:10339000CC051092CB051092CA051092C90586E0A3
:1033A00091E020E030E0FC014591559165917491E8
:1033B000403C52416105710559F54CE0429FC00106
:1033C000439F900D1124FC01E65FFE4F259134913F
:1033D0003093CA052093C905FC01E45FFE4F259197
:1033E00034913093CC052093CB05FC01E25FFE4F76
:1033F000259134913093CE052093CD05FC01E05FFB
:10340000FE4F859194919093D0058093CF0507C08E
:103410002F5F3F4F0C962D30310509F0C4CF8091BE
:10342000CD059091CE05892B09F446C09091C20537
:103430009631E0F520916800983050F031E09E30F0
:1034400008F430E081E001C0880F3A95EAF701C046
:1034500084E0822B80936800983038F09E3040F0F2
:10346000963148F4ECE6F0E008C0EDE6F0E005C087
:10347000EBE6F0E002C0E0E0F0E04081983030F4AC
:1034800081E001C0880F9A95EAF70EC0292F30E03D
:103490009E3018F42850310902C02E50310981E0C5
:1034A00001C0880F2A95EAF7842B80838091CF058D
:1034B0009091D0050E94EE0B809171029091720262
:1034C000865B954091F08091D1058E7F8093D105E8
:1034D0008FB7F89410926F021092700226EB35E0CD
:1034E00030937202209371028FBF62E081E10E94EB
:1034F000221762E080E10E94221762E08FE00E94C2
:10350000221781E18093B5051092B405E091AC05D6
:10351000F091AD050190F081E02D8CEA95E00995E0
:10352000882329F08091B40583608093B4050E94BC
:1035300084176093AE057093AF058093B0059093A8
:10354000B10585E090E09093B3058093B2051092A9
:10355000C4041092C2041092BF041092BE048AE008
:103560008093BD040E9484178B0161E08091BD04AB
:103570000E94221789EB94E00E943A0D60E08CE0F3
:103580000E94221761E08BE00E94221761E08DE02B
:103590000E94221761E08AE00E94221761E08AE01F
:1035A0000E94F21683E58CBD8DB58E7F8DBD5AE0ED
:1035B000F52E8FEF0E94DC03FA94F110FACF60E051
:1035C0008091BD040E94F21620E030E0A90160E085
:1035D00089EB94E00E945E0DF82E8093C304F1E025
:1035E0008F1749F00E948417601B710B613D774073
:1035F00058F381E056C02AEA31E040E050E068E04C
:1036000089EB94E00E945E0D82FF03C0F092C40437
:1036100010C044E0F42E0E94E1038093C304FA94A6
:10362000F110F9CF8A3A11F082E03BC082E080933A
:10363000C4048091C404823021F0C12CD12C7601C5
:1036400005C0C12CD12CE12C30E4F32E20E030E079
:10365000A90167E389EB94E00E945E0DA701960142
:1036600069E289EB94E00E945E0D8093C304882395
:1036700049F00E948417601B710B613D774030F365
:1036800088E00FC08091C404823001F520E030E072
:10369000A9016AE389EB94E00E945E0D882341F062
:1036A00086E08093BE0489EB94E00E943A0D90C0BE
:1036B0000E94E103807C803C19F483E08093C40481
:1036C0000E94E1030E94E1030E94E10389EB94E080
:1036D0000E943A0D8DB58E7F8DBD8CB58C7F8CBDD3
:1036E0008CB58CBD81E00E94700F882329F08091F9
:1036F000E804882341F06CC080E00E94700F8823AA
:1037000009F466C0F4CF8091DC04803109F582E0D1
:103710008093E8041092FA041092FB041092FC04C7
:103720001092FD048091DD049091DE04A0E0B0E0F1
:1037300025E0880F991FAA1FBB1F2A95D1F78093F8
:10374000F6049093F704A093F804B093F9041DC015
:103750008032F1F583E08093E8044091DF045091DA
:10376000E0046091E1047091E2044093FA04509304
:10377000FB046093FC047093FD0426EF34E085ECB9
:1037800094E00E94C311882319F185EC94E0909392
:10379000FF048093FE0481E08093E7041092E90423
:1037A0001092EA041092EB041092EC041092ED04D3
:1037B0001092EE041092EF041092F0041092F104B3
:1037C0001092F2041092F3041092F4041092F50493
:1037D00080E090E00E94282880934A0233243394AA
:1037E0008091B4058B7F8093B405E091AC05F09196
:1037F000AD050190F081E02D8CEA95E00995082F48
:103800008091B40586958170081779F00E9484171D
:103810006093AE057093AF058093B0059093B105AA
:103820009091B40582E0892730C00E948417C0902F
:10383000AE05D090AF05E090B005F090B1059B01CA
:10384000AC012C193D094E095F0969017A014091CB
:10385000B2055091B30560E070E0C416D506E606E7
:10386000F706A8F09091B4059170091781F00E94B5
:1038700084176093AE057093AF058093B005909365
:10388000B1058091B405832584608093B40580914F
:10389000B405982F917080FF1EC080914C02811159
:1038A0001AC030924C0280E10E94C9167C018FE060
:1038B0000E94C91621E0892B09F420E0809155026D
:1038C000EF2821F021110C949E2408C021110C94A2
:1038D0009725815008C090934C0207C08A3028F089
:1038E0006AE00E941F2E8093550286EB95E00E94AD
:1038F000890A892B09F4CCC5909167028091560200
:10390000992309F47BC1811113C0109257021092C0
:1039100058021092590210925A020E948417609322
:103920005B0270935C0280935D0290935E02B0C173
:103930000E948417C0904D02D0904E02E0904F023A
:10394000F0905002DC01CB018C199D09AE09BF0932
:10395000813D9740A105B10508F49AC10E948417E2
:1039600060934D0270934E0280934F0290935002E9
:103970004AE060914A02CE014C960E943E16BE017A
:10398000645E7F4FCE0101960E948A16CE01019699
:103990000E940014BC01CE0183960E948A16898180
:1039A0009A810E94D3288C8D9D8D0E94D3280FA1CF
:1039B00018A50115110511F41C8E13C00630110550
:1039C00010F006E010E06BA17CA1A801CE014C969E
:1039D0000E945D2AECE1F0E0EC0FFD1FE00FF11F0B
:1039E000108243E1BE01645E7F4FCE0101960E94CA
:1039F000F712EA8DFB8D309709F4F1C08581882399
:103A000009F4EDC04090E2055090E3056090E405B4
:103A10007090E5052091EA053091EB054091EC05A9
:103A20005091ED052AA73BA74CA75DA780911E06E4
:103A300090911F06A0912006B09121068F3F9F4FC5
:103A4000AF4FBF4F11F00E9484178090DA0590901D
:103A5000DB05A090DC05B090DD05C090D205D090CC
:103A6000D305E090D405F090D5058091160690918D
:103A70001706A0911806B09119068F3F9F4FAF4FC0
:103A8000BF4F11F00E9484174AA55BA56CA57DA5C8
:103A9000CE0101960E94981261EA71E0CE01019672
:103AA0000E940316B301A201CE0101960E94981252
:103AB00061EA71E0CE0101960E9403164091F20581
:103AC0005091F3056091F4057091F505CE010196D2
:103AD0000E94981261EA71E0CE0101960E940316DD
:103AE000409102065091030660910406709105060C
:103AF0002AE0CE0101960E94CA1461EA71E0CE016B
:103B000001960E9403166091FA057091FB05809161
:103B1000FC059091FD056F3F59EC75075AE9850743
:103B20005BE3950751F42AE04FEF59EC6AE97BE338
:103B3000CE0101960E94CA1410C00E94FD2B26E5FA
:103B40003EE04DEE5FE30E94222DAB01BC0122E07E
:103B500030E0CE0101960E94201561EA71E0CE01AD
:103B600001960E940316409112065091130660E0E0
:103B700070E02AE0CE0101960E94CA1461EA71E069
:103B8000CE0101960E94031640910A0650910B0641
:103B900060910C0670910D062AE0CE0101960E94FC
:103BA000CA1461EA71E0CE0101960E9403162AE070
:103BB000B501A401CE0101960E94CA1461EA71E028
:103BC000CE0101960E9403162AE0B701A601CE019C
:103BD00001960E94CA14CE0101960E94A1148A8DFA
:103BE0009B8D009731F00E9422098A8D9B8D0E9447
:103BF000D3288BA19CA10E94D3284AC0882309F412
:103C000047C00E948417C0905B02D0905C02E09095
:103C10005D02F0905E02DC01CB018C199D09AE09BA
:103C2000BF0980935B0290935C02A0935D02B09306
:103C30005E02E0904A0288E0E89E7001112457017C
:103C40009FEFA91AB90A07E512E0A9E0EA0EF11CF4
:103C5000F80161918F01C50123966FAF23970E94F0
:103C6000282823966FAD2397681719F0C5010E9485
:103C70003028FFEFAF1ABF0AAE14BF0449F76091B6
:103C80004A026F5F60934A0280E090E00E94302811
:103C900086EB95E00E94A10A082F80913B06909147
:103CA0003C06A0913D06B0913E060196A11DB11DB6
:103CB00080933B0690933C06A0933D06B0933E064E
:103CC000043209F450C2E0913906053234F40A3066
:103CD00071F00D3009F055C20AC00A3241F00C32C1
:103CE00009F04FC280912606802780932606EF3088
:103CF00008F028C2F0E0E85DF94F108280912706B5
:103D0000882309F428C1209128063FEB320F822F27
:103D1000022E000C990B363010F4C79707C02156BD
:103D2000263018F48755910901C0C097282F229595
:103D3000207F309129064FEB430F832F032E000C79
:103D4000990B463010F4C79707C03156363018F437
:103D50008755910901C0C097820F9091260689135B
:103D6000F0C080913A06882309F4ECC180913F06A7
:103D70009091400601969093400680933F06809173
:103D80001A0690911B06A0911C06B0911D06809307
:103D9000160690931706A0931806B0931906809103
:103DA000220690912306A0912406B09125068093C7
:103DB0001E0690931F06A0932006B09321068091C3
:103DC0003706882309F464C0813009F0B7C18091B7
:103DD000D6059091D705A091D805B091D9058093CB
:103DE000D2059093D305A093D405B093D5058091C7
:103DF000DE059091DF05A091E005B091E10580938B
:103E0000DA059093DB05A093DC05B093DD05809186
:103E1000E6059091E705A091E805B091E90580934A
:103E2000E2059093E305A093E405B093E505809146
:103E3000EE059091EF05A091F005B091F10580930A
:103E4000EA059093EB05A093EC05B093ED05809106
:103E5000FE059091FF05A0910006B09101068093A8
:103E6000FA059093FB05A093FC05B093FD058091A6
:103E7000060690910706A0910806B0910906809366
:103E8000020690930306A0930406B093050656C15C
:103E90008091F6059091F705A091F805B091F9058C
:103EA0008093F2059093F305A093F405B093F50584
:103EB0008091D6059091D705A091D805B091D905EC
:103EC0008093D2059093D305A093D405B093D505E4
:103ED0008091E6059091E705A091E805B091E9058C
:103EE0008093E2059093E305A093E405B093E50584
:103EF0008091EE059091EF05A091F005B091F1054C
:103F00008093EA059093EB05A093EC05B093ED0543
:103F100080911406909115069093130680931206D3
:103F200080910E0690910F06A0911006B091110697
:103F300080930A0690930B06A0930C06B0930D068F
:103F4000FDC08091410690914206019690934206F1
:103F500080934106F7C09091380691111DC0A8E2E8
:103F6000B6E043EA51E09D01F90181919F01882368
:103F700009F4E6C0FA019191AF018917A9F3E4E2CF
:103F8000F2E08D91882309F4D6C491918917C9F381
:103F900082E080933706D6C0E0913706E23009F41C
:103FA000D1C080912806882309F4CCC020E2E29F8A
:103FB000F0011124E92B3197E932F10508F0C2C074
:103FC000EC5CFF4F0C94612E0E94150B6093D6059C
:103FD0007093D7058093D8059093D9050E948417D4
:103FE00060931A0670931B0680931C0690931D061F
:103FF000A9C091E0813409F07DC07DC00E946F0BA3
:104000006093E6057093E7058093E8059093E905D2
:104010000E948417609322067093230680932406DF
:10402000909325068FC0833509F08CC08091E605FA
:104030009091E705A091E805B091E905B095A095AC
:10404000909581959F4FAF4FBF4F8093E60590931A
:10405000E705A093E805B093E90574C00E946F0BD3
:104060006093EE057093EF058093F0059093F10552
:1040700069C0873509F066C08091EE059091EF0523
:10408000A091F005B091F105B095A095909581951E
:104090009F4FAF4FBF4F8093EE059093EF05A093D6
:1040A000F005B093F1054EC00E94150B6093FE051C
:1040B0007093FF05809300069093010643C00E9411
:1040C000150B60930606709307068093080690937D
:1040D000090638C088E296E00E94EB0A6093DE058C
:1040E0007093DF058093E0059093E1052BC091E08C
:1040F00081330CF490E090933A0624C088E296E075
:104100000E94CA27992790931506809314061AC017
:104110000E94150B60930E0670930F068093100695
:10412000909311060FC00E94150B6093F6057093D3
:10413000F7058093F8059093F90504C091E003C05A
:104140003092370690E0809138068F5F8093380672
:104150001092390681E00A3209F080E08093270648
:10416000911123C095C11092390610923806109211
:10417000260682E0809337061092270610923A06B0
:1041800087C1EE3040F481E08E0F80933906F0E075
:10419000E85DF94F008380912706811179C18091F4
:1041A000260608270093260673C180911206909177
:1041B000130690936D0280936C028090E2059090BC
:1041C000E305A090E405B090E505C090EA05D09025
:1041D000EB05E090EC05F090ED0580911E069091C6
:1041E0001F06A0912006B09121068F3F9F4FAF4F31
:1041F000BF4F11F00E9484174FEF841649EC9406CC
:104200004AE9A4064BE3B406E9F0C501B4010E94F3
:10421000FF2B20E034E244E759E40E94552B6AA7C3
:104220007BA78CA79DA7C701B6010E94FF2B20E0AA
:1042300034E244E759E40E94552B6EA77FA788AB70
:1042400099AB0CC080E090E0AAE7B4E48AA79BA7F2
:10425000ACA7BDA78EA79FA7A8ABB9AB6091F2058D
:104260007091F3058091F4059091F5056F3F39EC5D
:1042700073073AE983073BE3930749F00E94FF2B5A
:1042800020E030E048EC52E40E94552B04C060E08E
:1042900074E284E799E46093680270936902809302
:1042A0006A0290936B0280916702882309F4D8C058
:1042B0002EA53FA548A959A9609163027091640297
:1042C00080916502909166020E946C2A25E33AEF84
:1042D0004EE85CE30E94222D6B017C010E948F2D31
:1042E00022966CAF7DAF8EAF9FAF2297C701B6010C
:1042F0000E94502B6AAB7BAB8CAB9DAB25E33AEFB6
:104300004EE85CE360915F0270916002809161020F
:10431000909162020E94222D6B017C0125E33AEF0D
:104320004EE85CE36AA57BA58CA59DA50E94222D85
:104330002B013C01C701B6010E948F2D4B015C018E
:10434000C701B6010E94502B6EAB7FAB88AF99AF0F
:10435000C301B2010E948F2D6AAF7BAF8CAF9DAFBE
:10436000C301B2010E94502B6B017C012AAD3BAD11
:104370004CAD5DAD6EA97FA988AD99AD0E94222D8F
:104380002B013C01A7019601C501B4010E94222D19
:104390002AA93BA94CA95DA90E94222D9B01AC0131
:1043A000C301B2010E946C2A9B01AC010E94222D24
:1043B0002B013C0122962CAD3DAD4EAD5FAD229759
:1043C000C701B6010E94222D9B01AC010E94222D43
:1043D0009B01AC01C301B2010E946D2A0E949D2D78
:1043E0002B013C012AAD3BAD4CAD5DADC501B40127
:1043F0000E94222D4B015C01A70196016EA97FA9A5
:1044000088AD99AD0E94222D2AA93BA94CA95DA98E
:104410000E94222D9B01AC01C501B4010E946D2AAE
:104420009B01AC01C301B2010E94EC2A26E73BE7E5
:1044300042EC5AE40E94222D9B01AC01609157028C
:10444000709158028091590290915A020E946D2AEF
:1044500060935702709358028093590290935A02C6
:104460008AA59BA5ACA5BDA580935F029093600231
:10447000A0936102B09362022EA53FA548A959A955
:104480002093630230936402409365025093660266
:1044900010910001809155028113BFC00E948417C2
:1044A000C0905102D0905202E0905302F09054021A
:1044B000DC01CB018C199D09AE09BF09893E9340EF
:1044C000A105B10508F49CC00E948417DC01CB0152
:1044D0008C199D09AE09BF09803C944DAF4FBF4F69
:1044E00008F49BC08DC08A3008F41FC20111AEC011
:1044F0001092550280E480937C0080917A00806461
:1045000080937A0080917A0086FDFCCF60917800DC
:104510008091790070E0782B072E000C880B990BA6
:104520000E94FF2B2AE038E240EA5BE30E94222D42
:104530006B017C0180E00E94CA1269EA71E085E4A7
:1045400096E00E94031621E030E0B701A60185E461
:1045500096E00E94201581E00E94CA1268EB71E08B
:1045600085E496E00E9403162AE03AE54FE459EB11
:10457000C701B6010E94222DA70196010E94222D9B
:10458000A70196010E94222D4B015C0120EC33E330
:104590004AEC5BE3C701B6010E94222DA7019601F8
:1045A0000E94222D9B01AC01C501B4010E946D2A1D
:1045B0004B015C0125E33FE242E95DEBC701B60137
:1045C0000E94222D9B01AC01C501B4010E946D2AFD
:1045D0002CE639E045EC5FE30E946D2AAB01BC019B
:1045E00022E030E085E496E00E9420156FE072E062
:1045F00085E496E00E9403168091550280930001A5
:10460000809167028093560264EF71E080E090E051
:104610000E945E170E948D18E3C885E496E00E9410
:1046200091180E94841760935102709352028093F4
:104630005302909354020091550246EF410F3CEE15
:10464000310F92EE910F8EE2810F50CF013041F485
:104650000093550280E00E94CA126FEA71E0C8CF51
:104660000A30B9F40093550280E00E94CA1266EB4A
:1046700071E085E496E00E94031681E00E94CA1270
:1046800040915F02509160026091610270916202FC
:1046900018C00B30F9F40093550280E00E94CA1252
:1046A0006FEB71E085E496E00E94031681E00E94C2
:1046B000CA12409163025091640260916502709148
:1046C000660222E030E085E496E00E9420156BEB64
:1046D00071E08ECF0C30B9F40093550280E00E9457
:1046E000CA1264EC71E085E496E00E94031681E052
:1046F0000E94CA12409168025091690260916A0258
:1047000070916B028EC00D30D9F40093550280E099
:104710000E94CA126BEC71E085E496E00E940316D9
:1047200081E00E94CA1240916C0250916D02052EE8
:10473000000C660B770B85E496E00E9498125CCF24
:10474000023041F40093550280E00E94CA1261EDEC
:1047500071E04ECF0431C1F40093550280E00E9415
:10476000CA1268ED71E085E496E00E94031681E0CC
:104770000E94CA1280916702882319F06EED71E0E1
:1047800037CF63EE71E034CF053171F400935502F9
:1047900080E00E94CA1269EE71E0ABC01A3008F0E6
:1047A000AFC01111A5CE03E05EE2500F533008F008
:1047B0008CC000935502E0904B0258E0E59E7001DA
:1047C000112457018FEFA81AB80ADE0111966D0166
:1047D000B9E0EB0EF11CC5010E942828F601819377
:1047E0006F01FFEFAF1ABF0AAE14BF04A1F780E05C
:1047F000023D01F50E94CA1265EF71E085E496E082
:104800000E94031681E00E94CA1220E030E048ECCA
:1048100052E469817A818B819C810E94552BAB0186
:10482000BC0122E030E085E496E00E94201569ECAE
:1048300071E0DECE033DF9F40E94CA126AEF71E026
:1048400085E496E00E94031681E00E94CA126D8101
:104850007E818F81988520E63AEE40E050E00E940C
:104860003F2EBA01A9012AE085E496E00E94CA140D
:1048700060E072E0BDCE0E94CA1265E072E085E49D
:1048800096E00E94031681E00E94CA126D817E812B
:104890008F8198850E94FD2B9B01AC0169817A81F3
:1048A0008B819C810E94552B20E030E040E152E456
:1048B0000E94222DAB01BC0122E030E085E496E0AD
:1048C0000E9420156CE072E093CE033041F4009317
:1048D000550280E00E94CA1261E172E089CE0E3179
:1048E00009F05CCF0093550280E00E94CA1268E193
:1048F00072E085E496E00E9403160E94DA177CCEEF
:104900004A3030F41A3011F00AE0ACCE0DE0FDCEA2
:104910003A3030F4143111F004E11ECF05E136CF06
:104920009A3008F0E0CD0EE13FCF123D11F002EDDC
:104930003BCF04ED39CF1092370604CC8E3109F00D
:10494000C2C085E496E00E949118809167028111AF
:10495000A7C080914A02882309F4BEC085E496E08E
:104960000E94911880E00E94CA1263E871E085E419
:1049700096E00E9403160E948417DC01CB01885147
:104980009C4FAF4FBF4F8093510290935202A09320
:104990005302B09354024AE060914B02CE014C9610
:1049A0000E943E16BE01645E7F4FCE0101960E94BA
:1049B0008A16CE0101960E940014BC01CE01839696
:1049C0000E948A1689819A810E94D3288C8D9D8DA0
:1049D0000E94D3280FA118A50115110511F41C8EF2
:1049E00013C00630110510F006E010E06BA17CA1A9
:1049F000A801CE014C960E945D2AECE1F0E0EC0F9C
:104A0000FD1FE00FF11F108241E0BE01645E7F4F89
:104A1000CE0101960E94F7126BE871E08AE895E0FA
:104A20000E94B5148AE895E00E94A114EA8DFB8DDE
:104A3000309769F48A8D9B8D009711F10E942209AD
:104A40008A8D9B8D0E94D3281B8E1A8E19C085815A
:104A5000882381F3CE0101960E943201892B51F304
:104A6000CE0101960E94BC03E0918A05F0918B056E
:104A70000190F081E02D682F8AE895E00995EACF52
:104A800060E971E08AE895E00E94B5148AE895E053
:104A90000E94A1148BA19CA10E94D3280C94751C88
:104AA00085E496E00E94911880E00E94CA1264E9B1
:104AB00071E085E496E00E94031681E00E94CA122C
:104AC00069E971E01BC0853179F580914A0288233C
:104AD00019F082ED0C94731C85E496E00E94911805
:104AE00080E00E94CA126EE971E085E496E00E94BF
:104AF000031681E00E94CA1262E472E085E496E047
:104B00000E9403160E948417DC01CB0188519C4F40
:104B1000AF4FBF4F8093510290935202A093530224
:104B2000B09354020C94751C8F5F0C94731C9FEF10
:104B3000980F993038F4880F982F990F990F890F93
:104B40000C94731C843129F580916C0290916D0254
:104B5000892BC9F485E496E00E94911880E00E94B8
:104B6000CA1263E771E085E496E00E94031681E0D3
:104B70000E94CA126BE771E085E496E00E9403167A
:104B800010926702BFCF80916702832580936702EE
:104B900011C08E3121F0853111F00C94751C80917B
:104BA0004B0290E0019660914A0270E00E942B2E29
:104BB00080934B028091510290915202A091530236
:104BC000B0915402885E9340A109B109A3CF10921D
:104BD000BE041092BF041092C2041092C40482E07A
:104BE00090E0A0E0B0E08093C5049093C604A09349
:104BF000C704B093C8041092DC041092E60410922B
:104C0000E50487E291E09093E4048093E30410923A
:104C1000E80410928D0510928C0588EE93E0A0E0D8
:104C2000B0E080938E0590938F05A0939005B0938C
:104C300091058FE291E090938B0580938A0586E43D
:104C400095E0909397058093960582E095E0909388
:104C500099058093980585EC90E090939B0580934F
:104C60009A0584EC90E090939D0580939C0580ECE0
:104C700090E090939F0580939E0581EC90E0909347
:104C8000A1058093A00582EC90E09093A30580930A
:104C9000A20586EC90E09093A5058093A40524E0FE
:104CA0002093A60583E08093A70587E08093A8055D
:104CB00095E09093A90531E03093AA05109248063B
:104CC0001092470647E651E050934606409345064A
:104CD000209349062FEF20934A0690934B0696E0C7
:104CE00090934C0680934D0688E080934E0689E0B1
:104CF00080934F0610925006109251061092520661
:104D00001092530661E084E00E94221780914A06C7
:104D10008F3F19F061E00E94221761E080914B06FD
:104D20000E9422171092540661E085E496E00E94EA
:104D30002C124FEF5FEFBA014093D2055093D30589
:104D40006093D4057093D5051092DA051092DB05B7
:104D50001092DC051092DD058FEF99ECAAE9BBE318
:104D60008093E2059093E305A093E405B093E505F5
:104D70008093EA059093EB05A093EC05B093ED05C5
:104D80008093F2059093F305A093F405B093F50595
:104D90008093FA059093FB05A093FC05B093FD0565
:104DA0008093020690930306A0930406B093050631
:104DB00040930A0650930B0660930C0670930D0601
:104DC0008FEF90E09093130680931206409316069F
:104DD00050931706609318067093190640931E06A9
:104DE00050931F06609320067093210610922606AA
:104DF0001092270682E080933706109238061092B0
:104E0000390610923A0610923B0610923C06109218
:104E10003D0610923E061092400610923F061092F8
:104E2000420610924106109228061092B90510927F
:104E3000B80588EE93E0A0E0B0E08093BA059093C7
:104E4000BB05A093BC05B093BD0587E491E09093AA
:104E5000B7058093B6051092CA051092C905109245
:104E6000CC051092CB051092CE051092CD05109274
:104E7000D0051092CF058091D1058E7F8D7F8093D4
:104E8000D10561E082E00E94221761E082E00E9489
:104E9000F216ECEDF1E0E491E093C605E8ECF1E008
:104EA000E491F0E0EE0FFF1FEE54FE4F85919491D8
:104EB0009093C8058093C70560E083E00E942217A5
:104EC0008091D10581FD04C061E083E00E94F2166B
:104ED00083E08093C205EDEDF1E0E491E093C3053A
:104EE000E9ECF1E0E491F0E0EE0FFF1FE454FE4F37
:104EF000859194919093C5058093C4058FE391E0CB
:104F00009093AD058093AC051092AE051092AF055D
:104F10001092B0051092B1058AE090E09093B3052D
:104F20008093B2051092B4051092B505089587E4F8
:104F300091E09093B7058093B6052091C205263184
:104F400040F5283028F02E3030F0ECE6F0E005C0D7
:104F5000EDE6F0E002C0EBE6F0E03081283038F416
:104F600081E090E001C0880F2A95EAF70FC0422F38
:104F700050E02E3018F44850510902C04E505109EB
:104F800081E090E001C0880F4A95EAF7809583237D
:104F900080830895FC0188279927E8942191203285
:104FA000E9F3293010F02E30C8F32B3241F02D32C6
:104FB00039F4689404C00E94EB27820F911D21915F
:104FC00020532A30C0F31EF4909581959F4F089589
:104FD000F8940C94D42E7AE0979F902D879F802D83
:104FE000910D112408954532510520F4423010F0FE
:104FF0000C94FE27FB011082CB010895BB27FB0117
:105000005527AA27880F991FAA1FA41710F0A41BC1
:1050100083955051B9F7A05DAA3308F0A95DA1931B
:10502000009779F7B111B1931192CB010C94182824
:10503000DC01FC01672F71917723E1F7329704C0FF
:105040007C916D9370836291AE17BF07C8F308958A
:10505000F999FECF92BD81BDF89A992780B5089540
:10506000262FF999FECF1FBA92BD81BD20BD0FB684
:10507000F894FA9AF99A0FBE01960895CF93DF93A8
:105080008230910510F482E090E0E0916506F091A5
:10509000660620E030E0C0E0D0E0309711F14081BA
:1050A000518148175907C0F04817590761F48281A8
:1050B0009381209719F09B838A832BC09093660677
:1050C0008093650626C02115310519F04217530754
:1050D00018F49A01BE01DF01EF010280F381E02D97
:1050E000DCCF2115310509F1281B390B243031059E
:1050F00090F412968D919C9113976115710521F092
:10510000FB019383828304C09093660680936506B7
:10511000FD01329644C0FD01E20FF31F819391938C
:10512000225031092D933C933AC02091630630916F
:105130006406232B41F4209107013091080130933C
:105140006406209363062091050130910601211524
:10515000310541F42DB73EB74091090150910A0144
:10516000241B350BE0916306F0916406E217F30708
:10517000A0F42E1B3F0B2817390778F0AC014E5FC7
:105180005F4F2417350748F04E0F5F1F509364069A
:10519000409363068193919302C0E0E0F0E0CF0179
:1051A000DF91CF9108950F931F93CF93DF930097D3
:1051B00009F48CC0FC0132971382128200916506BB
:1051C000109166060115110581F420813181820F4D
:1051D000931F20916306309164062817390779F5EB
:1051E000F0936406E093630671C0D80140E050E09C
:1051F000AE17BF0750F412962D913C911397AD0155
:105200002115310509F1D901F3CF9D01DA0133836D
:10521000228360817181860F971F8217930769F43B
:10522000EC0128813981260F371F2E5F3F4F3183D4
:1052300020838A819B8193838283452B29F4F09379
:105240006606E093650642C01396FC93EE931297B0
:10525000ED01499159919E01240F351FE217F30783
:1052600071F480819181840F951F029611969C9311
:105270008E938281938113969C938E931297E0E094
:10528000F0E0D80112968D919C911397009719F038
:10529000F8018C01F6CF8D919C9198012E5F3F4FC4
:1052A000820F931F209163063091640628173907F7
:1052B00069F4309729F4109266061092650602C0D0
:1052C000138212821093640600936306DF91CF91DC
:1052D0001F910F910895A0E0B0E0E1E7F9E20C948E
:1052E0007E2EEC01009721F4CB010E943E28B8C02D
:1052F000FC01E60FF71F9C0122503109E217F3076A
:1053000008F4ACC0D9010D911C911197061717072D
:10531000B0F00530110508F49FC0C8010497861746
:10532000970708F499C002501109061B170B019347
:1053300011936D937C93CF010E94D3288DC05B01A4
:10534000A01AB10A4C01800E911EA0916506B09181
:10535000660640E050E0E12CF12C109709F44AC0B9
:10536000A815B905D1F56D907C901197630182E085
:10537000C80ED11CCA14DB0480F1A3014A195B09D1
:105380006A0182E0C80ED11C1296BC901297139647
:10539000AC91B5E0CB16D10440F0B282A383518327
:1053A0004083D9016D937C930AC00E5F1F4FC301E8
:1053B000800F911FF90191838083EB2DFA2FE11467
:1053C000F10431F0D7011396FC93EE93129744C089
:1053D000F0936606E09365063FC08D919C9111970E
:1053E0004817590708F4AC017D0112960D90BC9145
:1053F000A02DB3CF8091630690916406881599051E
:10540000E1F446175707C8F4809105019091060111
:10541000009741F48DB79EB74091090150910A0160
:10542000841B950BE817F907C8F4F0936406E09322
:105430006306F901718360830FC0CB010E943E288F
:105440007C01009759F0A801BE010E94422ACE01BA
:105450000E94D328C70104C0CE0102C080E090E0C2
:10546000CDB7DEB7EEE00C949A2EFB01DC0104C050
:105470008D910190801921F441505040C8F7881B4C
:10548000990B0895FB01DC0102C001900D9241507F
:105490005040D8F70895FC018191861721F08823A8
:1054A000D9F7992708953197CF010895FB01DC01C1
:1054B00001900D920020E1F70895FB01DC014150BD
:1054C000504048F001900D920020C9F701C01D9294
:1054D00041505040E0F708955058BB27AA270E943A
:1054E000842A0C94C72C0E948E2C38F00E94952C94
:1054F00020F039F49F3F19F426F40C94642C0EF438
:10550000E095E7FB0C945E2CE92F0E94EC2C58F3FD
:10551000BA17620773078407950720F079F4A6F598
:105520000C940E2D0EF4E0950B2EBA2FA02D0B012E
:10553000B90190010C01CA01A0011124FF27591BD8
:1055400099F0593F50F4503E68F11A16F040A22FDE
:10555000232F342F4427585FF3CF4695379527954F
:10556000A795F0405395C9F77EF41F16BA0B620B4E
:10557000730B840BBAF09150A1F0FF0FBB1F661F95
:10558000771F881FC2F70EC0BA0F621F731F841FD8
:1055900048F4879577956795B795F7959E3F08F0FE
:1055A000B0CF9395880F08F09927EE0F97958795C0
:1055B00008950E948E2C60F080E891E009F49EEF3F
:1055C0000E94952C28F040E851E071F45EEF0CC089
:1055D0000C94642C0C940E2DE92FE0780E94EC2C96
:1055E00040F3092E052AB1F3261737074807590754
:1055F00038F00E2E07F8E02569F0E025E0640AC0D7
:10560000EF6307F8009407FADB01B9019D01DC01A3
:10561000CA01AD01EF930E946C2B0E94C72C0E941F
:105620001C2B5F91552339F02BED3FE049E450FDF1
:1056300049EC0C946D2A0895DF93DD27B92FBF77CD
:1056400040E85FE31616170648075B0718F4D92FE2
:105650000E941A2D9F938F937F936F930E94DD2D4D
:10566000EAEBF0E00E94672C0E94C72C2F913F913B
:105670004F915F910E94352DDD2351F09058A2EAA1
:105680002AED3FE049EC5FE3D0785D270E94842A51
:10569000DF910C94C72C0E943A2C08F481E0089505
:1056A0000E949E2CE3950C94D82C0E94692B0C949C
:1056B000C72C0E94952C58F00E948E2C40F029F4A3
:1056C0005F3F29F00C945E2C51110C940F2D0C941B
:1056D000642C0E94EC2C68F39923B1F3552391F3C9
:1056E000951B550BBB27AA2762177307840738F051
:1056F0009F5F5F4F220F331F441FAA1FA9F335D0AE
:105700000E2E3AF0E0E832D091505040E695001C61
:10571000CAF72BD0FE2F29D0660F771F881FBB1F1B
:10572000261737074807AB07B0E809F0BB0B802DF9
:10573000BF01FF2793585F4F3AF09E3F510578F025
:105740000C945E2C0C940F2D5F3FE4F3983ED4F341
:10575000869577956795B795F7959F5FC9F7880FF9
:10576000911D9695879597F90895E1E0660F771F4B
:10577000881FBB1F621773078407BA0720F0621BDC
:10578000730B840BBA0BEE1F88F7E09508950E9407
:10579000CE2B6894B1110C940F2D08950E94F42C17
:1057A00088F09F5798F0B92F9927B751B0F0E1F0E2
:1057B000660F771F881F991F1AF0BA95C9F714C092
:1057C000B13091F00E940E2DB1E008950C940E2D91
:1057D000672F782F8827B85F39F0B93FCCF38695CB
:1057E00077956795B395D9F73EF490958095709528
:1057F00061957F4F8F4F9F4F0895E89409C097FBA5
:105800003EF490958095709561957F4F8F4F9F4F97
:105810009923A9F0F92F96E9BB279395F6958795DB
:1058200077956795B795F111F8CFFAF4BB0F11F49E
:1058300060FF1BC06F5F7F4F8F4F9F4F16C0882345
:1058400011F096E911C0772321F09EE8872F762F7B
:1058500005C0662371F096E8862F70E060E02AF0BC
:105860009A95660F771F881FDAF7880F96958795A8
:1058700097F90895990F0008550FAA0BE0E8FEEF7D
:1058800016161706E807F907C0F012161306E40704
:10589000F50798F0621B730B840B950B39F40A26FD
:1058A00061F0232B242B252B21F408950A2609F4DB
:1058B000A140A6958FEF811D811D089597F99F67DF
:1058C00080E870E060E008959FEF80EC0895DF933A
:1058D000CF931F930F93FF92EF92DF927B018C0186
:1058E000689406C0DA2EEF010E94352DFE01E8947F
:1058F000A5912591359145915591A6F3EF010E940F
:10590000842AFE019701A801DA9469F7DF90EF90ED
:10591000FF900F911F91CF91DF91089500240A9479
:105920001616170618060906089500240A9412167A
:1059300013061406050608950C94642C0E94F42C9A
:10594000D8F3E894E0E0BB279F57F0F02AED3FE062
:1059500049EC06C0EE0FBB0F661F771F881F28F0AB
:10596000B23A62077307840728F0B25A620B730BCE
:10597000840BE3959A9572F7803830F49A95BB0FB3
:10598000661F771F881FD2F790480C94E82D092EC8
:105990000394000C11F4882352F0BB0F40F4BF2B8A
:1059A00011F460FF04C06F5F7F4F8F4F9F4F0895CA
:1059B000EF93E0FF07C0A2EA2AED3FE049EC5FEB7E
:1059C0000E94842A0E94C72C0F90039401FC9058D7
:1059D000E7EEF0E00C94FB2D57FD9058440F551F57
:1059E00059F05F3F71F04795880F97FB991F61F061
:1059F0009F3F79F087950895121613061406551FD8
:105A0000F2CF4695F1DF08C0161617061806991F43
:105A1000F1CF86957105610508940895E894BB2738
:105A200066277727CB0197F908950E943A2C08F44E
:105A30008FEF08959B01AC0160E070E080E89FE388
:105A40000C94552B0E94352D0C94C72C0E948E2C43
:105A500038F00E94952C20F0952311F00C945E2CC8
:105A60000C94642C11240C940F2D0E94EC2C70F3D8
:105A7000959FC1F3950F50E0551F629FF001729FF3
:105A8000BB27F00DB11D639FAA27F00DB11DAA1F02
:105A9000649F6627B00DA11D661F829F2227B00D4F
:105AA000A11D621F739FB00DA11D621F839FA00DDA
:105AB000611D221F749F3327A00D611D231F849F2A
:105AC000600D211D822F762F6A2F11249F57504081
:105AD0009AF0F1F088234AF0EE0FFF1FBB1F661FFC
